:100000000C942A000C9447000C9447000C94470071
:100010000C9447000C9447000C9447000C94470044
:100020000C9447000C9447000C9447000C94470034
:100030000C9447000C9449000C9447000C94470022
:100040000C9447000C9447000C9447000C94470014
:100050000C94470011241FBECFE5D8E0DEBFCDBF12
:1000600010E0A0E6B0E0E8E1F2E002C005900D92F9
:10007000AA38B107D9F711E0AAE8B0E001C01D9293
:10008000A830B107E1F70E94B0000C940A010C946B
:1000900000001F920F920FB60F9211248F939F931F
:1000A000AF93BF93EF93FF938CB1E0918A00F0E0A0
:1000B000E457FF4F808380918A008F5F80938A008E
:1000C00080918A00873080F4E0918A00A0918A00B4
:1000D000F0E0E557FF4FB0E0AD57BF4F90818C91F6
:1000E000981711F010928A0080918A00823318F0DC
:1000F00081E080938B00FF91EF91BF91AF919F9131
:100100008F910F900FBE0F901F9018958AB188693C
:100110008AB980B5866880BD8091830089B90895C9
:100120005F9BFECF8CB108955D9BFECF8CB95E9B2B
:10013000FECF08951F93CF93DF93EC0110E003C02F
:100140000E9494001F5FFE01E10FF11D8081882352
:10015000B9F782E30E949400DF91CF911F91089537
:100160000F931F93CF93DF938AB188698AB980B5C3
:10017000866880BD8091830089B980E197E228EC90
:1001800030E0F9013197F1F70197D9F77894809130
:100190008B008823E1F3F89480E690E00E949A00B7
:1001A000CCE8D0E089910E94940080E0CE3BD80753
:1001B000C9F78DE00E94940080E790E00E949A00C9
:1001C000A3970CEF10E08991F80181938F010E94B1
:1001D0009400F0E0C73ADF07B1F78DE00E94940089
:1001E00089E790E00E949A00229600EF10E0899142
:1001F000F80181938F010E949400F0E0C53BDF0776
:10020000B1F78DE00E94940010928A0010928B004A
:080210007894BDCFF894FFCFF4
:10021800526563656976656420537472696E670018
:100228004C61746974756465004C6F6E67697475A8
:0A0238006465003324475047474136
:00000001FF
